:1000000077280F39A00083161F088F3910389F00FA
:1000100083120310A00DA00D1F08C1392004013860
:100020009F000030A10064302F209F149F181628D5
:10003000A1011E0872288001840AFF3E031D1B28AF
:100040007228A301A200FF30A207031CA307031C10
:1000500072280330A100DF302F202328A101E83EC1
:10006000A000A109FC30031C3828A007031835287C
:10007000A0076400A10F352820183E28A01C4228A4
:10008000000042280800A20003304C28A2000130E2
:100090004C28A20004304C28A80023082102031D8C
:1000A00053282208200204300318013003190230BB
:1000B0002805031DFF3072281030A800A101A001FF
:1000C000A70CA60C031C6A282208A0072308031803
:1000D000230FA107A10CA00CA50CA40CA80B602851
:1000E0002408722883130313831264000800FF237B
:1000F000831690008312831605110512851285144C
:10010000851581018312073099009F0183169F0195
:1001100002309500960183128B0185128316851299
:1001200083120516831605128312BC01BD013C081B
:10013000A0003D08A100A30105304620031DB22800
:10014000103085068316051220308312850683162B
:10015000851283120130A300F4302220BC0A031957
:10016000BD0F972805128316051283128512831678
:10017000851283120511831605112030840040304A
:1001800083121B203A08A0003B08A100A3015030B5
:100190004920031DE32850303A02B2000030031C0E
:1001A000013E3B02B3003208A6003308A7003A30F4
:1001B000A200A3015C20BC002508BD0085128316A7
:1001C00085128312E9288516831685128312BC01D5
:1001D000BD0105128316051283123C08A0003D08DC
:1001E000A1002330A30028304320031D00293C0830
:1001F000283CBC003D08031C013E233CBD000629F1
:10020000BC01BD0105168316051283120821C22800
:100210006400851C34296400851C34293D08A10034
:100220003C082F200515831605110030831201208C
:10023000BA002108BB000511831605118312640062
:10024000851C23291F293D08A1003C082F200515E6
:1002500083160511003083120120BA002108BB006B
:0A0260000511831605118312080032
:02400E00DC3F95
:00000001FF
