:10000000B601F3289818181218162C08A0002D080D
:10001000A100A201A3010C280D2864008C1A23283A
:10002000FF30A207031CA307031CA007031CA107A2
:10003000031CEE28220F0B28230F0C28FA30A200F5
:100040000030A3000D281A080314EE28B616B61EB9
:10005000B61236193028FE39B70036150310EE28CF
:10006000361A3828A60036164F2003183D282608D1
:10007000562003183D28B61EEE2848206D20361164
:100080003612B6113A0884003808841780044E28C6
:100090003A0884003809800584178005080042204A
:1000A0006D20482069203708B6190138A2000830B1
:1000B000A300A20D03184220031C48206D206920D4
:1000C000A30B592842206D203A0884003808000507
:1000D000FF3E3B08840039094B283B08840039085F
:1000E0004528B800841780048413A201201CA200B4
:1000F00080200319EE2880200319EE288020EE28A6
:100100003808A2060130A000A10100083805220627
:10011000031D0800A00A0319A10F852808008317F2
:100120008001840AFF3E031D9028EE28A301A2004F
:10013000FF30A207031CA307031CEE280330A10015
:10014000E630A4209828A101FC3EA000A109031CD0
:10015000AF28FF300000A0070318AA28A0076400FA
:10016000A10FA9280800A2000130BB28A20004307A
:10017000BB28A2000530A80023082102031DC228C5
:100180002208200204300318013003190230280528
:10019000031DFF30EE280038031DFF300405031D4A
:1001A000FF30EE28A501A4011030A600210DA40DFA
:1001B000A50D2208A4022308031C230FA50203187F
:1001C000E8282208A40723080318230FA507031013
:1001D000A00DA10DA60BD6282008EE28831303132B
:1001E000831264000800831604309900653098007B
:1001F0008312D030980083160714203084006030BA
:1002000083128A019020A030840050308A0190200F
:100210001030840060308A018F209030840060307C
:100220008A018F209F01831607309F008113A4014C
:10023000A5018312831624088312A00083162508C3
:100240008312A100A3010A308A01B3208A110A1285
:10025000031D3B290830870683168711C830831297
:100260008A0196208316A40A0319A50A8A110A1284
:100270008312031D1A29871183168711A201A30176
:100280008312831085188314831683182214831C09
:100290002210831283100518831483168318A21466
:1002A000831CA21083128310861B83148316831869
:1002B0002215831C221183128310061B83148316BC
:1002C0008318A215831CA21183128310861A83142B
:1002D000831683182216831C221283128310061A97
:1002E000831483168318A216831CA2128312831010
:1002F00086198314831683182217831C22138312F2
:1003000083100619831483168318A217831CA21363
:100310008312831086188314831683182314831C76
:100320002310831283100618831483168318A314D2
:10033000831CA310FF30A2060330A306A001A10175
:100340008312A0010730840001308A017120200847
:10035000FD002108FE007D08A0007E08A100A30189
:1003600028308A01B6208A110A12031DC82B87156E
:10037000831687118312D030AC000730AD008A019C
:1003800002208A110A12031C3B298316A400A5012E
:1003900083128A0102208A110A12031C3B29831648
:1003A000A600A70124088312A00083162508831243
:1003B000A100A30100308A01B920B20083162608EB
:1003C0008312A000831627088312A100A301003026
:1003D0008A01B920B4003208840034088A01CB2095
:1003E000B400B5006400340835048A110A120319F8
:1003F000FB298A013B2983160130A400A501831241
:10040000831624088312A000831625088312A100F6
:10041000831623088312A3008316220883128A01FD
:10042000B3208A110A12031D292A0A30AC00AD013B
:100430008A0102208A110A12031C3B298316A60096
:10044000A701A40A0319A50A8A110A128312031D1F
:10045000002A83160130A400A50183128316240804
:100460008312A000831625088312A100A301403047
:100470008A01B3208A110A12031D5C2A0A30AC00DB
:10048000AD018A0102208A110A12031C5C2AB20003
:10049000B301831624083C3E840083123208800096
:1004A0008316A00A0319A10AA40A0319A50A8A112E
:1004B0000A128312031D2E2A83160130A400A501FF
:1004C0008312831624088312A00083162508831242
:1004D000A100831621088312A3008316200883122B
:1004E0008A01B3208A110A12031D982A8316240850
:1004F0003C3E840083120008B2003208A000A10133
:100500000430A200A3018A01D220B2002108B30066
:10051000831624083C3E8400831232088000831630
:10052000A40A0319A50A8A110A128312031D612A5B
:100530000530BA000430B8000530BB000830B900FF
:1005400040308A01282000308A0128203D088A0195
:1005500028203E088A0128203F088A0128204008D8
:100560008A01282041088A01282042088A0128207F
:1005700043088A01282044088A0126200530BA0051
:100580000430B8000530BB000830B90042308A01A1
:10059000282000308A01282045088A0128204608A2
:1005A0008A01282047088A01282048088A01282033
:1005B00049088A0128204A088A0128204B088A0114
:1005C00028204C088A0126200530BA000430B800E3
:1005D0000530BB000830B90044308A0128200030C3
:1005E0008A0128204D088A0128204E088A012820E7
:1005F0004F088A01282050088A01282051088A01C2
:10060000282052088A01282053088A0128205408EB
:100610008A0126200530BA000430B8000530BB003E
:100620000830B90046308A01282000308A0128208D
:1006300055088A01282056088A01282057088A016F
:10064000282058088A01282059088A0128205A0899
:100650008A0128205B088A0128205C088A0126205C
:100660000530BA000430B8000530BB000830B900CE
:1006700048308A01282000308A0128205D088A013C
:1006800028205E088A0128205F088A012820600847
:100690008A01282061088A01282062088A0128200E
:1006A00063088A01282064088A0126200530BA00E0
:1006B0000430B8000530BB000830B9004A308A0168
:1006C000282000308A01282065088A012820660831
:1006D0008A01282067088A01282068088A012820C2
:1006E00069088A0128206A088A0128206B088A0183
:1006F00028206C088A0126200530BA000430B80092
:100700000530BB000830B9004C308A012820003089
:100710008A0128206D088A0128206E088A01282075
:100720006F088A01282070088A01282071088A0130
:10073000282072088A01282073088A01282074085A
:100740008A0126200530BA000430B8000530BB000D
:100750000830B9004E308A01282000308A01282054
:1007600075088A01282076088A01282077088A01DE
:10077000282078088A01282079088A0128207A0808
:100780008A0128207B088A0128207C088A012620EB
:100790008A013B290530BA000430B8000530BB009F
:1007A0000830B90040308A01282000308A01282012
:1007B0003D088A0128203E088A0128203F088A0136
:1007C000282040088A01282041088A012820420860
:1007D0008A01282043088A01282044088A0126200B
:1007E0000530BA000430B8000530BB000830B9004D
:1007F00040308A01282000308A0128203D088A01E3
:1008000028203E088A0128203F088A012820400825
:100810008A01282041088A01282042088A012820CC
:1008200043088A01282044088A0126200530BA009E
:100830000430B8000530BB000830B90040308A01F0
:10084000282000308A0128203D088A0128203E08FF
:100850008A0128203F088A01282040088A01282090
:1008600041088A01282042088A01282043088A0179
:0A087000282044088A012620080011
:02400E00763FFB
:00000001FF
