:100000002129A400C3172730A30010301320033088
:10001000A300E8301320A30164301320A3010A30A9
:10002000132024081E28A2002508A1002408A000EF
:10003000E4202008031DC313C31B0800303EA200A8
:100040008316071283120930A30003102E20A20C7E
:10005000A30B262803142E2003141C29031833286D
:10006000000007123528071635280030A100663039
:10007000A12864000C1E3928990003141C29C4000F
:1000800052202008210403191C2916218413440836
:10009000800664004B284C28A00A0319A10F4928A8
:1000A00080061C29FF3A841780051C29A000A00D9A
:1000B000A00D200D3839C1389F000030A10032302A
:1000C000A1201F151F196228A1011E081C298317D2
:1000D0008001840AFF3E031D68281C292108200492
:1000E0000319A00A8030201AA1062019A106A01821
:1000F000A106210DA00DA10D1C2903178D0083164B
:100100008C130C1483120C081C2903178C00831603
:100110008C130C1555308D00AA308D008C148C1862
:100120008F280C111C29A301A200FF30A207031C79
:10013000A307031C1C290330A100E630A120952849
:10014000A101FC3EA000A109031CAC28FF30000067
:10015000A0070318A728A0076400A10FA62808007D
:100160000310A00DA10DFF3E0318B02820081C2984
:10017000A101A301A2000230C928A2000330C928AE
:10018000A301A2000130C928A2000430C928A2009E
:100190000530A80023082102031DD02822082002D0
:1001A000043003180130031902302805031DFF3005
:1001B0001C290038031DFF300405031DFF301C29D6
:1001C0000404031DFF301C29A501A4011030A60062
:1001D000210DA40DA50D2208A4022308031C230F42
:1001E000A5020318FA282208A40723080318230FDE
:1001F000A5070310A00DA10DA60BE82820081C29B7
:100200001030A800A101A001A70CA60C031C0E2908
:100210002208A00723080318230FA107A10CA00C94
:10022000A50CA40CA80B042924081C29A009A109C9
:10023000A00A0319A10A08008313031383126400A0
:100240000800831604309900653098008312D0307E
:1002500098008316811320308400603083128A0155
:100260006820A030840050308A016820103084005B
:1002700060308A0167209030840060308A016720F6
:1002800000308A017D20CE0001308A017D20E80007
:1002900002308A017D20F5004E08A600A7016430D7
:1002A000A200A3018A010021B2002508B30068085A
:1002B000A600A7010A30A200A3018A010021B40010
:1002C0002508B5003208B40733080318013EB50706
:1002D00075083407C80035080318013EC9004E30C0
:1002E0008A011F2044308A011F204D308A011F20BF
:1002F00058308A011F2020308A011F204908A5009C
:1003000048088A0101200A308A011F200D308A0125
:100310001F208A150A1224200130CD000530EA0082
:1003200000308A017D20CE0001308A017D20E80066
:1003300002308A017D20F50003308A017D20E9002A
:100340006908E7008A150A12B5204E08A600A70121
:100350006430A200A3018A010021B2002508B30085
:100360006808A600A7010A30A200A3018A010021A3
:10037000B4002508B5003208B40733080318013E5D
:10038000B50775083407C80035080318013EC900D1
:1003900007308A015620CF0006308A015620D2004D
:1003A00005308A015620D50004308A015620D80035
:1003B00003308A015620DB0002308A015620DE001D
:1003C00001308A015620E10000308A015620E40005
:1003D0000F308A01932064006908013C8A110A12D7
:1003E000031DF8298A110A12CB248A110A12502AF5
:1003F00064006908023C8A110A12031D052A8A1149
:100400000A1204258A110A12502A64006908033C62
:100410008A110A12031D122A8A110A1235258A111D
:100420000A12502A64006908043C8A110A12031D4A
:100430001F2A8A110A12A9258A110A12502A640059
:100440006908053C8A110A12031D2C2A8A110A1216
:100450001D268A110A12502A64006908063C8A1176
:100460000A12031D392A8A110A1289268A110A12D0
:10047000502A64006908073C8A110A12031D462AA3
:100480008A110A12F5268A110A12502A6400690894
:10049000083C8A110A12031D502A8A110A12802769
:1004A00098138316071383120713831607138030DC
:1004B00083128A01A02098170E308A01A0200130F3
:1004C000CA00CB014A08A0004B08A1004908A300BC
:1004D00048088A01C1208A110A12031D792A0030B6
:1004E0008A013920CA0A0319CB0A8A110A12031D8C
:1004F000622A4F088A01392052088A01392055089A
:100500008A01392058088A0139205B088A0139207C
:100510005E088A01392061088A01392064088A014D
:10052000392064008A110A12881BF12ACA01CB0102
:100530000030881B0130A00000308A01B820B200D2
:100540004A08A0004B08A100A301C8308A01C420BA
:10055000B4003208840034088A01D920B400B50000
:100560006400340835048A110A120319BF2ACA0A22
:100570000319CB0A0A308A0193208A01982A4A0873
:10058000A0004B08A100A301C8308A01BD208A1138
:100590000A12031DD62A0F30E7008A150A12B52069
:1005A0008A110A12EB238A110A12F12A0A30E70093
:1005B0008A150A12B5200130A300F4308A01942074
:1005C0000D30E7008A150A12B520C8308A01932041
:1005D0000130F500E801CE01CA01CB018A110A12EF
:1005E000F3228A019029E7010130A300F4308A0147
:1005F00094208A150A12B52064008A110A12881FF5
:100600003F2B1030A0002730A100073084000130BC
:100610008A013F2064008A110A128618232B640085
:10062000093067028A110A1203181A2BE70A8A1185
:100630000A121B2BE7018A150A12B5200130A3000C
:10064000F4308A01942064008A110A1206183D2BA6
:100650006400013067028A110A12031C332BE7037E
:100660008A110A12352B0930E7008A150A12B520C3
:100670000130A300F4308A0194208A01FC2ACA0ABE
:100680000319CB0A4A08A0004B08A100A3010130BE
:100690008A01C7208A110A12031D5C2B6708CE004D
:1006A0000C30E7008A150A12B5200330A300203071
:1006B0008A0194208A01F32A4A08A0004B08A1006D
:1006C000A30102308A01C7208A110A12031D762B6A
:1006D0006708E8000B30E7008A150A12B5200330DE
:1006E000A30020308A0194208A01F32A6708F500CC
:1006F0000130A300F4308A0194208A150A125D208B
:100700004E08A600A7016430A200A3018A010021BF
:10071000B2002508B3006808A600A7010A30A200AD
:10072000A3018A010021B4002508B5003208B407EE
:1007300033080318013EB50775083407C8003508AB
:100740000318013EC9004808A0004908A100013073
:10075000A300F9308A01C4208A110A12031DB92BA3
:100760000530CE00E8010530F500F930C800013051
:10077000C9004E308A011F2044308A011F204D30AD
:100780008A011F2058308A011F2020308A011F2033
:100790004908A50048088A0101200A308A011F2063
:1007A0000D308A011F2003178D0103134E088A01A3
:1007B0008520031701308D00031368088A01852006
:1007C000031702308D00031375088A0185208A15EE
:1007D0000A12242008000130F40064008A110A1271
:1007E0000618F72B0130E7008A110A123F2C64002B
:1007F0008A110A128618012C0230E7008A110A12A7
:100800003F2C64008A110A1206190B2C0330E700F2
:100810008A110A123F2C64008A110A128619152CBB
:100820000430E7008A110A123F2C64008A110A1270
:10083000061A1F2C0530E7008A110A123F2C6400AB
:100840008A110A12861A292C0630E7008A110A1228
:100850003F2C64008A110A12061B332C0730E70074
:100860008A110A123F2C64008A110A12861B3D2C41
:100870000830E7008A110A123F2C8A01EB2B003066
:1008800006180130A00000308A01B820B200003004
:1008900086180130A00000308A01B820B400320868
:1008A000840034088A01E020B400B5000030061945
:1008B0000130A00000308A01B820B60034083504A9
:1008C000840036088A01E020B600B700003086199F
:1008D0000130A00000308A01B820B8003608370483
:1008E000840038088A01E020B800B9000030061AF8
:1008F0000130A00000308A01B820BA00380839045D
:1009000084003A088A01E020BA00BB000030861A51
:100910000130A00000308A01B820BC003A083B0436
:1009200084003C088A01E020BC00BD000030061BAA
:100930000130A00000308A01B820BE003C083D0410
:1009400084003E088A01E020BE00BF000030861B04
:100950000130A00000308A01B820C0003E083F04EA
:10096000840040088A01E020C000C1006400400803
:1009700041048A110A120319BF2C8A013F2C67080F
:10098000E9006908E700031703308D0003136908C5
:100990008A018520080064008A110A120618D22CE8
:1009A000FF30CF0064008A110A128618D92CFF305C
:1009B000D20064008A110A120619E02CFF30D5001B
:1009C00064008A110A128619E72CFF30D8006400EF
:1009D0008A110A12061AEE2CFF30DB0064008A111D
:1009E0000A12861AF52CFF30DE0064008A110A1202
:1009F000061BFC2CFF30E10064008A110A12861BE2
:100A0000032DFF30E400080064008A110A12061862
:100A10000A2DCF0164008A110A128618102DD20106
:100A200064008A110A120619162DD50164008A1174
:100A30000A1286191C2DD80164008A110A12061A9E
:100A4000222DDB0164008A110A12861A282DDE018C
:100A500064008A110A12061B2E2DE10164008A111E
:100A60000A12861B342DE4010800F30A640073089F
:100A70006A028A110A120318482DF301F40A64006D
:100A8000093074028A110A12031C482D0130F40047
:100A900064007408013C8A110A12031D542DFF30B2
:100AA000CF008A110A12A52D64007408023C8A1135
:100AB0000A12031D602DFF30D2008A110A12A52DE3
:100AC00064007408033C8A110A12031D6C2DFF3068
:100AD000D5008A110A12A52D64007408043C8A11FD
:100AE0000A12031D782DFF30D8008A110A12A52D95
:100AF00064007408053C8A110A12031D842DFF301E
:100B0000DB008A110A12A52D64007408063C8A11C4
:100B10000A12031D902DFF30DE008A110A12A52D46
:100B200064007408073C8A110A12031D9C2DFF30D3
:100B3000E1008A110A12A52D64007408083C8A118C
:100B40000A12031DA52DFF30E4008A110A12EB27BB
:100B50000800F30A640073086A028A110A12031873
:100B6000BC2DF301F4036400013074028A110A12EF
:100B70000318BC2D0830F40064007408013C8A118D
:100B80000A12031DC82DFF30CF008A110A12192E38
:100B900064007408023C8A110A12031DD42DFF3030
:100BA000D2008A110A12192E64007408033C8A11BB
:100BB0000A12031DE02DFF30D5008A110A12192EEA
:100BC00064007408043C8A110A12031DEC2DFF30E6
:100BD000D8008A110A12192E64007408053C8A1183
:100BE0000A12031DF82DFF30DB008A110A12192E9C
:100BF00064007408063C8A110A12031D042EFF309B
:100C0000DE008A110A12192E64007408073C8A114A
:100C10000A12031D102EFF30E1008A110A12192E4C
:100C200064007408083C8A110A12031D192EFF3053
:100C3000E4008A110A12EB270800F30A6400730823
:100C40006A028A110A120318302EF301F40A6400B2
:100C5000093074028A110A12031C302E0130F4008C
:100C600064007408013C8A110A12031D3B2ECF0157
:100C70008A110A12852E64007408023C8A110A1235
:100C8000031D462ED2018A110A12852E64007408B3
:100C9000033C8A110A12031D512ED5018A110A1232
:100CA000852E64007408043C8A110A12031D5C2E10
:100CB000D8018A110A12852E64007408053C8A1135
:100CC0000A12031D672EDB018A110A12852E6400A9
:100CD0007408063C8A110A12031D722EDE018A1165
:100CE0000A12852E64007408073C8A110A12031D3B
:100CF0007D2EE1018A110A12852E64007408083CD9
:100D00008A110A12031D852EE4018A110A12EB27AB
:100D10000800F30A640073086A028A110A120318B1
:100D20009C2EF301F4036400013074028A110A124C
:100D300003189C2E0830F40064007408013C8A11EA
:100D40000A12031DA72ECF018A110A12F12E640088
:100D50007408023C8A110A12031DB22ED2018A11B4
:100D60000A12F12E64007408033C8A110A12031D52
:100D7000BD2ED5018A110A12F12E64007408043CBC
:100D80008A110A12031DC82ED8018A110A12F12EE7
:100D900064007408053C8A110A12031DD32EDB017E
:100DA0008A110A12F12E64007408063C8A110A1294
:100DB000031DDE2EDE018A110A12F12E6400740872
:100DC000073C8A110A12031DE92EE1018A110A1259
:100DD000F12E64007408083C8A110A12031DF12EDA
:100DE000E4018A110A12EB270800F30A6400730871
:100DF0006A028A110A1203181F2FF30164004C08BB
:100E0000003C8A110A12031D142F64000130740281
:100E10008A110A120318102F0130F4000130CC009F
:100E2000F4038A110A121F2F6400093074028A1118
:100E30000A12031C1E2F0830F400CC01F40A6400CF
:100E40007408013C8A110A12031D2B2FFF30CF00BA
:100E50008A110A127C2F64007408023C8A110A125B
:100E6000031D372FFF30D2008A110A127C2F640035
:100E70007408033C8A110A12031D432FFF30D5006A
:100E80008A110A127C2F64007408043C8A110A1229
:100E9000031D4F2FFF30D8008A110A127C2F6400E7
:100EA0007408053C8A110A12031D5B2FFF30DB001A
:100EB0008A110A127C2F64007408063C8A110A12F7
:100EC000031D672FFF30DE008A110A127C2F640099
:100ED0007408073C8A110A12031D732FFF30E100CA
:100EE0008A110A127C2F64007408083C8A110A12C5
:100EF000031D7C2FFF30E4008A110A12EB27080043
:100F0000F30A640073086A028A110A120318AF2FE9
:100F10007408A000A1018A016E202008F400CA0113
:100F2000CB014A08A0004B08A10074088A01C02028
:100F30008A110A12031DAE2F0310CD0D64004D0857
:100F4000003C8A110A12031DA72F0130CD00CA0AE6
:100F50000319CB0A8A110A12031D912FF3016400B1
:100F60008A110A124D1CB62FFF30CF0064008A117F
:100F70000A12CD1CBD2FFF30D20064008A110A1264
:100F80004D1DC42FFF30D50064008A110A12CD1DFB
:100F9000CB2FFF30D80064008A110A124D1ED22FC9
:100FA000FF30DB0064008A110A12CD1ED92FFF30FA
:100FB000DE0064008A110A124D1FE02FFF30E100AD
:100FC00064008A110A12CD1FE72FFF30E4008A1156
:100FD0000A12EB27080064008A110A120618F22F81
:100FE0000530EA0064008A110A128618F92F0A30C7
:100FF000EA0064008A150A12061900281430EA0073
:1010000064008A150A12861907281E30EA00640057
:101010008A150A12061A0E282830EA0064008A157A
:101020000A12861A15283230EA0064008A150A125C
:10103000061B1C283C30EA0064008A150A12861B35
:1010400023284630EA0008004E08E7008A150A12F5
:10105000B5200130A300F4308A0194206330E7000A
:101060008A150A12B520C8308A0193206808E70063
:101070008A150A12B5200130A300F4308A019420A9
:101080006330E7008A150A12B520C8308A01932020
:101090007508E7008A150A12B5200130A300F43064
:1010A0008A0194206330E7008A150A12B5200130C6
:1010B000A300F4308A01942008006330E7008A1509
:1010C0000A12B520881483168810C83083128A014A
:1010D0009320881083168810831208148316081032
:1010E000C83083128A0193200810831608108312D7
:1010F000871483168710C83083128A0193208710C3
:10110000831687108312071583160711C8308312C0
:101110008A019320071183160711831287158316FE
:101120008711C83083128A01932087118316871193
:101130008312081583160811C83083128A01932080
:101140000811831608118312881483168810C8307A
:1011500083128A019320881083168810831201302D
:10116000A300F4308A0194200800881083168810A8
:1011700083120810831608108312871083168710B5
:1011800083120711831607118312871183168711A3
:10119000831208118316081183128811831688118F
:1011A000640083126708003C8A150A12031DF328A5
:1011B000881483168810831208148316081083126B
:1011C000871483168710831207158316071183125D
:1011D0008715831687118312081583160811831249
:1011E0008A150A12782A64006708013C8A150A12D7
:1011F000031D05290814831608108312871483160B
:10120000871083128A150A12782A64006708023C44
:101210008A150A12031D2329881483168810831245
:1012200008148316081083120715831607118312FA
:1012300087158316871183128815831688118312E8
:101240008A150A12782A64006708033C8A150A1274
:10125000031D4129881483168810831208148316ED
:1012600008108312871483168710831207158316BC
:101270000711831288158316881183128A150A12A2
:10128000782A64006708043C8A150A12031D5B294A
:10129000081483160810831287148316871083128C
:1012A0000815831608118312881583168811831276
:1012B0008A150A12782A64006708053C8A150A1202
:1012C000031D7929881483168810831287148316C6
:1012D00087108312071583160711831208158316CA
:1012E0000811831288158316881183128A150A1231
:1012F000782A64006708063C8A150A12031D9B2998
:10130000881483168810831287148316871083121B
:101310000715831607118312871583168711831209
:1013200008158316081183128815831688118312F5
:101330008A150A12782A64006708073C8A150A127F
:10134000031DB1298814831688108312081483168C
:101350000810831287148316871083128A150A12C5
:10136000782A64006708083C8A150A12031DD729E9
:1013700088148316881083120814831608108312A9
:10138000871483168710831207158316071183129B
:101390008715831687118312081583160811831287
:1013A00088158316881183128A150A12782A640018
:1013B0006708093C8A150A12031DF9298814831647
:1013C000881083120814831608108312871483165A
:1013D00087108312071583160711831208158316C9
:1013E0000811831288158316881183128A150A1230
:1013F000782A640067080A3C8A150A12031D172A16
:101400008814831688108312081483160810831218
:101410008715831687118312081583160811831206
:1014200088158316881183128A150A12782A640097
:1014300067080B3C8A150A12031D2D2A8714831690
:1014400087108312071583160711831287158316D9
:10145000871183128A150A12782A640067080C3CE7
:101460008A150A12031D4B2A0814831608108312CA
:1014700087148316871083120715831607118312AA
:101480008715831687118312881583168811831296
:101490008A150A12782A640067080D3C8A150A1218
:1014A000031D612A071583160711831287158316FA
:1014B0008711831288158316881183128A150A12E0
:1014C000782A640067080F3C8A150A12031D782ADF
:1014D0008814831688108312871583168711831248
:1014E0000815831608118312881583168811831234
:0214F0000800F2
:02400E00763FFB
:084200000000000001000100B4
:00000001FF
