:100000004529A2008316851183120930A30003102D
:100010001020A20CA30B082803141020031440295D
:10002000031815280000851117288515172800309A
:10003000A1001830F4289818181218162C08A000DF
:100040002D08A100A201A3012528262864008C1AEE
:100050003C28FF30A207031CA307031CA007031CB6
:10006000A107031C4029220F2428230F2528FA303A
:10007000A2000030A30026281A08031440296400B7
:100080000C1E3F28990003144029C20084178004E5
:100090008413A201201CA2005420031940295420DB
:1000A00003194029542040294208A2060130A0002B
:1000B000A101000842052206031D0800A00A031939
:1000C000A10F592808002C08A0002D08A10001301C
:1000D000A200A30164009120031C7E28A20B6A28C1
:1000E000FF30A30703186A28A007031CA107031CFD
:1000F0004029FA30A2000030A3006A28CF20A801CE
:100100000830A300D02091200318A80AAB1EA80134
:10011000A20CA30B8228AB1AA213D020031422082E
:1001200008004408840042088417800484130005F2
:100130002B1B4206FF3E0800A600440884008030C6
:10014000C1050830A70003100318C10AB520A60C8A
:10015000A70BA4280000AB1A410CB52043210314BF
:10016000B5202F08A3002E08E7288413AB1FC4284E
:10017000000842042B1F4206800084170008420436
:10018000031C42068000D02800084204031C4206DB
:100190002B1B42068000841742098005D028411796
:1001A0002B081F39003EA1002A080E3E0318A10AA1
:1001B000411FF4284113A00002300621F4288317C0
:1001C0008001840AFF3E031DE0284029A301A2000C
:1001D000FF30A207031CA307031C40290330A10022
:1001E000E630F420E828A101FC3EA000A109031C90
:1001F000FF28FF300000A0070318FA28A0076400BA
:10020000A10FF92808000310A10CA00CFF3E031851
:10021000032920084029A20001301329A20004303C
:100220001329A2000530A80023082102031D1A2962
:100230002208200204300318013003190230280577
:10024000031DFF3040290038031DFF300405031D46
:10025000FF3040291030A800A101A001A70CA60C76
:10026000031C38292208A00723080318230FA1071D
:10027000A10CA00CA50CA40CA80B2E292408402925
:10028000831303138312640008008316043099005B
:10029000653098008312D03098009F018316073094
:1002A0009F00811383128716831687128312071605
:1002B00083160712533083128A01012059308A01B4
:1002C000012053308A01012054308A010120453039
:1002D0008A0101204D308A01012020308A0101204D
:1002E00053308A01012054308A01012041308A01B3
:1002F000012052308A01012054308A0101205530FA
:100300008A01012050308A0101200D308A0101202C
:100310000A308A0101200130A300F4308A01E7206D
:1003200087128316871220308400603083128A017E
:10033000E020A030840050308A01E020103084009A
:1003400060308A01DF209030840060308A01DF2035
:1003500005118316051183128514831685108312E7
:10036000CC01CD014C08A0004D08A100A30105302F
:100370008A010B218A110A12031DCF29023085063A
:100380008316851083120130A300F4308A01E72020
:10039000CC0A0319CD0A8A110A12031DB229851449
:1003A0008316851064008A110A1283120518E72942
:1003B00054308A01012058308A0101200A308A0114
:1003C00001200D308A0101208A110A12F3295230CE
:1003D0008A01012058308A0101200A308A01012057
:1003E0000D308A010120CA01CB010130861C0301B6
:1003F000B2000030861C0301B300B20A0319B30A2D
:100400000130061D0301B4000030061D0301B500D4
:100410003208B40733080318013EB5070130861DC2
:100420000301B6000030861D0301B7003408B6078B
:1004300035080318013EB7070130061E0301B80056
:100440000030061E0301B9003608B8073708031844
:10045000013EB9070130861E0301BA000030861E36
:100460000301BB003808BA0739080318013EBB076F
:100470000130061F0301BC000030061F0301BD0050
:100480003A08BC073B080318013EBD070130861F30
:100490000301BE000030861F0301BF003C08BE07F9
:1004A0003D080318013EBF074030A600A7013E08E3
:1004B000A2003F08A3008A012A21BE002508BF0030
:1004C0003E08003CCA003F08031C013E023CCB0032
:1004D00064008A110A120518522B871083168710A0
:1004E00083120511831605118312C801C901A001E9
:1004F0000730840001308A0145202008C600210809
:10050000C7004608A0004708A100A30128308A01BF
:100510000E218A110A12031D4F2BD030AC00073078
:10052000AD008A011B208A110A12031CF529CC0098
:10053000CD018A011B208A110A12031CF529CE0065
:10054000CF014C08A0004D08A100A30100308A0192
:100550001121B2004E08A0004F08A100A3010030F5
:100560008A011121B4003208840034088A01232151
:10057000B400B5006400340835048A110A12031966
:10058000C32A8A01F5290130CC00CD014C08A00016
:100590004D08A1004B08A3004A088A010B218A11CB
:1005A0000A12031DE52A0A30AC00AD018A011B20A6
:1005B0008A110A12031CF529CE00CF01CC0A0319B7
:1005C000CD0A8A110A12031DC62A0130CC00CD01C2
:1005D0004C08A0004D08A100A30140308A010B2166
:1005E0008A110A12031D0E2B0A30AC00AD018A01DC
:1005F0001B208A110A12031C0E2BB200B3014C08F7
:10060000A03E840032088000C80A0319C90ACC0A37
:100610000319CD0A8A110A12031DE82A03308A0140
:10062000E62005158316051107308312C400043037
:10063000C2000630AA00AB01AE01AF012A308A0128
:100640009C202F308A019C2048088A019C20013080
:10065000CC00CD014C08A0004D08A1004908A30022
:1006600048088A010B218A110A12031D4F2B0730FB
:10067000C4000430C2000630AA00AB01AE01AF01D5
:100680004C08A03E84000008B20032088A019C2079
:10069000CC0A0319CD0A8A110A12031D2A2B8A11CA
:1006A0000A12FD2B871483168710831205118316F7
:1006B000051107308312C4000830C2000630AA00BA
:1006C000AB01E830AC000330AD008A0163208A1131
:1006D0000A12031CF5292A3C8A110A12031D652BF4
:1006E0008A0163208A110A12031CF5292F3C8A1102
:1006F0000A12031D652B8A0163208A110A12031C4A
:10070000F529C800C9010130CC00CD014C08A0007A
:100710004D08A1004908A30048088A010B218A114D
:100720000A12031DB12B0730C4000830C200063086
:10073000AA00AB01C830AC00AD018A0163208A1168
:100740000A12031CB12BB200B3014C08A03E840076
:1007500032088000CC0A0319CD0A8A110A12031D3F
:10076000862B05158316051183129813831607131C
:100770008312071383160713803083128A01F32034
:1007800098170E308A01F3200130CC00CD014C08BF
:10079000A0004D08A1004B08A3004A088A010B21C4
:1007A0008A110A12031DDE2B00308A013F20CC0A79
:1007B0000319CD0A8A110A12031DC72B0130CC0080
:1007C000CD014C08A0004D08A1004908A30048082D
:1007D0008A010B218A110A12031DFD2B4C08A03E31
:1007E00084000008B20032088A013F20CC0A0319B5
:0E07F000CD0A8A110A12031DE12B8A01F52998
:02400E007E3FF3
:00000001FF
