:100000004029A400B7172730A30010301320033075
:10001000A300E8301320A30164301320A3010A30A9
:10002000132024081E28A2002508A1002408A000EF
:1000300009212008031DB713B71B0800303EA2009A
:100040008316051183120930A30003102E20A20C81
:10005000A30B262803142E2003143B29031833284E
:10006000000005113528051535280030A10066303F
:10007000D828A9004B30A0004C30A1000921031959
:100080001210031D1214FC3E031C9210031892144C
:100090004030A0004B30A1004C30A400A501121844
:1000A0007B2092187B200B21200383169200831261
:1000B0002008A2002108A3002808A600A700280FF6
:1000C000A70125212508A90B712895000C30970060
:1000D000A41B9716241B17168316071183121215DB
:1000E0003B299B000C309D00A41B9D16241B1D1654
:1000F000831687106E287C200310A40CA10CA00C82
:1001000008009818181218162C08A0002D08A10035
:10011000A201A3018B288C2864008C1AA228FF302E
:10012000A207031CA307031CA007031CA107031CB1
:100130003B29220F8A28230F8B28FA30A200003097
:10014000A3008C281A0803143B29B80084178004E4
:100150008413A201201CA200B42003193B29B4205F
:1001600003193B29B4203B293808A2060130A0001E
:10017000A101000838052206031D0800A00A031982
:10018000A10FB928080083178001840AFF3E031DD0
:10019000C4283B29A301A200FF30A207031CA30728
:1001A000031C3B290330A100E630D820CC28A10154
:1001B000FC3EA000A109031CE328FF300000A007BB
:1001C0000318DE28A0076400A10FDD280800A200A4
:1001D0000130F228A2000630F228A2000430F228F2
:1001E000A2000530A80023082102031DF9282208D7
:1001F0002002043003180130031902302805031DC2
:10020000FF303B290038031DFF300405031DFF307C
:100210003B29A501A4011030A600210DA40DA50DB8
:100220002208A4022308031C230FA50203181F2978
:100230002208A40723080318230FA5070310A00D05
:10024000A10DA60B0D2920083B291030A800A10103
:10025000A001A70CA60C031C33292208A007230821
:100260000318230FA107A10CA00CA50CA40CA80B2C
:10027000292924083B2983130313831264000800EF
:10028000831604309900653098008312D0309800AE
:100290008316071420308400603083128A01C42042
:1002A000A030840050308A01C420103084006030B7
:1002B0008A01C3209030840060308A01C3209F01EE
:1002C000831607309F0081138312871083168710CF
:1002D0008312871183168711831285128316851264
:1002E0008312851183168511831207128316071254
:1002F00083128712831687128312C401C501440832
:10030000A0004508A100A301FA308A01E7208A1164
:100310000A12031DF9294408A0004508A100A30101
:1003200001308A01EA208A110A12031D9B298714D1
:100330008316871083124408A0004508A100A3017A
:100340002A308A01EA208A110A12031DAB29871577
:100350008316871183124408A0004508A100A30159
:1003600054308A01EA208A110A12031DBB2985161E
:100370008316851283124408A0004508A100A3013A
:100380007E308A01EA208A110A12031DCB298515C5
:100390008316851183124408A0004508A100A3011B
:1003A000A8308A01EA208A110A12031DDB290716E8
:1003B0008316071283124408A0004508A100A30178
:1003C000D2308A01EA208A110A12031DEB2987160E
:1003D00083168712831296308A01CA200A30C40716
:1003E0008A110A12031C7F29C50A8A110A12031DE9
:1003F0007F29871083168710831287118316871130
:100400008312851283168512831285118316851136
:10041000831207128316071283128712831687121C
:100420008312BE01BF010608BE00BF0105183F14BC
:10043000051C3F108518BF14851CBF10FF30BE0679
:100440000330BF064E308A011F2044308A011F202E
:100450004D308A011F2058308A011F2020308A0128
:100460001F203F08A5003E088A0101200A308A01AA
:100470001F200D308A011F20A001073084000130A9
:100480008A01A5202008BC002108BD003C08A0006E
:100490003D08A100A3012D308A01ED208A110A1226
:1004A000031D642BE830AC000330AD008A018120CD
:1004B0008A110A12031C112AC200C3018A01812079
:1004C0008A110A12031C112AC400C5014208A000A7
:1004D0004308A100A30100308A01F020B2004408C3
:1004E000A0004508A100A30100308A01F020B4005B
:1004F0003208840034088A010221B400B500640087
:10050000340835048A110A120319A22A45308A01D7
:100510001F2058308A011F2049308A011F20543083
:100520008A011F2020308A011F203F08A5003E08B5
:100530008A0101200A308A011F200D308A011F2004
:100540008A01112AC001C1014008A0004108A10090
:100550003F08A3003E088A01E7208A110A12031D02
:10056000C32A1430AC00AD018A0181208A110A121D
:10057000031C112AC400C501C00A0319C10A8A114B
:100580000A12031DA42A76308A011F2061308A01D5
:100590001F206C308A011F206F308A011F207230AB
:1005A0008A011F2065308A011F2020308A011F2008
:1005B0004508A50044088A0101200A308A011F204D
:1005C0000D308A011F204408A800D030A200073057
:1005D000A30001308A013920871083168710831207
:1005E0008711831687118312851283168512831251
:1005F0008511831685118312071283160712831241
:1006000087128316871283124408A0004508A100B0
:10061000A30101308A01EA208A110A12031D142B5A
:1006200087148316871083124408A0004508A10090
:10063000A3012A308A01EA208A110A12031D242B01
:1006400087158316871183124408A0004508A1006E
:10065000A30154308A01EA208A110A12031D342BA7
:1006600085168316851283124408A0004508A10050
:10067000A3017E308A01EA208A110A12031D442B4D
:1006800085158316851183124408A0004508A10032
:10069000A301A8308A01EA208A110A12031D542BF3
:1006A00007168316071283124408A0004508A1000C
:1006B000A301D2308A01EA208A110A12031D642B99
:0C06C00087168316871283128A01112A04
:02400E00763FFB
:00000001FF
